{"abi":[{"type":"constructor","inputs":[{"name":"_unlockTime","type":"uint256","internalType":"uint256"}],"stateMutability":"payable"},{"type":"function","name":"MAX_DEPOSIT_AMOUNT","inputs":[],"outputs":[{"name":"","type":"uint256","internalType":"uint256"}],"stateMutability":"view"},{"type":"function","name":"MIN_DEPOSIT_AMOUNT","inputs":[],"outputs":[{"name":"","type":"uint256","internalType":"uint256"}],"stateMutability":"view"},{"type":"function","name":"deposit","inputs":[],"outputs":[],"stateMutability":"payable"},{"type":"function","name":"deposits","inputs":[{"name":"","type":"address","internalType":"address"}],"outputs":[{"name":"","type":"uint256","internalType":"uint256"}],"stateMutability":"view"},{"type":"function","name":"getBalance","inputs":[],"outputs":[{"name":"","type":"uint256","internalType":"uint256"}],"stateMutability":"view"},{"type":"function","name":"getContractStats","inputs":[],"outputs":[{"name":"","type":"uint256","internalType":"uint256"},{"name":"","type":"uint256","internalType":"uint256"},{"name":"","type":"uint256","internalType":"uint256"}],"stateMutability":"view"},{"type":"function","name":"getUnlockTime","inputs":[],"outputs":[{"name":"","type":"uint256","internalType":"uint256"}],"stateMutability":"view"},{"type":"function","name":"getUserDeposit","inputs":[{"name":"user","type":"address","internalType":"address"}],"outputs":[{"name":"","type":"uint256","internalType":"uint256"}],"stateMutability":"view"},{"type":"function","name":"isUnlocked","inputs":[],"outputs":[{"name":"","type":"bool","internalType":"bool"}],"stateMutability":"view"},{"type":"function","name":"owner","inputs":[],"outputs":[{"name":"","type":"address","internalType":"address"}],"stateMutability":"view"},{"type":"function","name":"pause","inputs":[],"outputs":[],"stateMutability":"nonpayable"},{"type":"function","name":"paused","inputs":[],"outputs":[{"name":"","type":"bool","internalType":"bool"}],"stateMutability":"view"},{"type":"function","name":"totalDeposits","inputs":[],"outputs":[{"name":"","type":"uint256","internalType":"uint256"}],"stateMutability":"view"},{"type":"function","name":"totalWithdrawals","inputs":[],"outputs":[{"name":"","type":"uint256","internalType":"uint256"}],"stateMutability":"view"},{"type":"function","name":"transferOwnership","inputs":[{"name":"newOwner","type":"address","internalType":"address"}],"outputs":[],"stateMutability":"nonpayable"},{"type":"function","name":"unlockTime","inputs":[],"outputs":[{"name":"","type":"uint256","internalType":"uint256"}],"stateMutability":"view"},{"type":"function","name":"unpause","inputs":[],"outputs":[],"stateMutability":"nonpayable"},{"type":"function","name":"withdraw","inputs":[{"name":"amount","type":"uint256","internalType":"uint256"}],"outputs":[],"stateMutability":"nonpayable"},{"type":"function","name":"withdrawAll","inputs":[],"outputs":[],"stateMutability":"nonpayable"},{"type":"event","name":"Deposited","inputs":[{"name":"depositor","type":"address","indexed":true,"internalType":"address"},{"name":"amount","type":"uint256","indexed":false,"internalType":"uint256"},{"name":"timestamp","type":"uint256","indexed":false,"internalType":"uint256"}],"anonymous":false},{"type":"event","name":"OwnershipTransferred","inputs":[{"name":"previousOwner","type":"address","indexed":true,"internalType":"address"},{"name":"newOwner","type":"address","indexed":true,"internalType":"address"}],"anonymous":false},{"type":"event","name":"Paused","inputs":[{"name":"account","type":"address","indexed":false,"internalType":"address"}],"anonymous":false},{"type":"event","name":"Unpaused","inputs":[{"name":"account","type":"address","indexed":false,"internalType":"address"}],"anonymous":false},{"type":"event","name":"Withdrawn","inputs":[{"name":"withdrawer","type":"address","indexed":true,"internalType":"address"},{"name":"amount","type":"uint256","indexed":false,"internalType":"uint256"},{"name":"timestamp","type":"uint256","indexed":false,"internalType":"uint256"}],"anonymous":false},{"type":"error","name":"PiggyBank__DepositTooHigh","inputs":[]},{"type":"error","name":"PiggyBank__DepositTooLow","inputs":[]},{"type":"error","name":"PiggyBank__NotOwner","inputs":[]},{"type":"error","name":"PiggyBank__StillLocked","inputs":[]},{"type":"error","name":"PiggyBank__TransferFailed","inputs":[]},{"type":"error","name":"PiggyBank__ZeroAddress","inputs":[]}],"bytecode":{"object":"0x6080604052604051610b00380380610b00833981016040819052610022916100c8565b4281116100755760405162461bcd60e51b815260206004820152601d60248201527f556e6c6f636b2074696d65206d75737420626520696e20667574757265000000604482015260640160405180910390fd5b5f80546001600160a01b03191633908117825560018390556002805460ff191690556040519091907f8be0079c531659141344cd1fd0a4f28419497f9722a3daafe3b4186f6b6457e0908290a3506100df565b5f602082840312156100d8575f80fd5b5051919050565b610a14806100ec5f395ff3fe608060405260043610610110575f3560e01c80637d8820971161009d578063c084b10b11610062578063c084b10b14610291578063d0e30db0146102c5578063dfe6b5d6146102cd578063f2fde38b146102fb578063fc7e286d1461031a575f80fd5b80637d882097146102075780638380edb71461021c5780638456cb5914610233578063853828b6146102475780638da5cb5b1461025b575f80fd5b80633f4ba83a116100e35780633f4ba83a146101855780634c34a982146101995780635c975abb146101b5578063602bc62b146101de57806360464627146101f2575f80fd5b806312065fe0146101145780631ea30fef14610135578063251c1aa31461014f5780632e1a7d4d14610164575b5f80fd5b34801561011f575f80fd5b50475b6040519081526020015b60405180910390f35b348015610140575f80fd5b5061012266038d7ea4c6800081565b34801561015a575f80fd5b5061012260015481565b34801561016f575f80fd5b5061018361017e36600461090b565b610345565b005b348015610190575f80fd5b506101836104bd565b3480156101a4575f80fd5b5061012268056bc75e2d6310000081565b3480156101c0575f80fd5b506002546101ce9060ff1681565b604051901515815260200161012c565b3480156101e9575f80fd5b50600154610122565b3480156101fd575f80fd5b5061012260055481565b348015610212575f80fd5b5061012260045481565b348015610227575f80fd5b506001544210156101ce565b34801561023e575f80fd5b50610183610571565b348015610252575f80fd5b506101836105fa565b348015610266575f80fd5b505f54610279906001600160a01b031681565b6040516001600160a01b03909116815260200161012c565b34801561029c575f80fd5b506101226102ab366004610922565b6001600160a01b03165f9081526003602052604090205490565b61018361073c565b3480156102d8575f80fd5b50600454600554476040805193845260208401929092529082015260600161012c565b348015610306575f80fd5b50610183610315366004610922565b610833565b348015610325575f80fd5b50610122610334366004610922565b60036020525f908152604090205481565b60025460ff16156103715760405162461bcd60e51b81526004016103689061094f565b60405180910390fd5b60015442101561039457604051632d4f9b0560e01b815260040160405180910390fd5b335f90815260036020526040812054908290036103c4576040516345556f1f60e01b815260040160405180910390fd5b808211156103e5576040516312e10f2760e01b815260040160405180910390fd5b6103ef828261098f565b335f90815260036020526040812091909155600580548492906104139084906109a8565b90915550506040805183815242602082015233917f92ccf450a286a957af52509bc1c9939d1a6a481783e142e41e2499f0bb66ebc6910160405180910390a26040515f90339084908381818185875af1925050503d805f8114610491576040519150601f19603f3d011682016040523d82523d5f602084013e610496565b606091505b50509050806104b8576040516340d812e160e01b815260040160405180910390fd5b505050565b5f546001600160a01b031633146104e65760405162461bcd60e51b8152600401610368906109bb565b60025460ff166105315760405162461bcd60e51b815260206004820152601660248201527510dbdb9d1c9858dd081a5cc81b9bdd081c185d5cd95960521b6044820152606401610368565b6002805460ff191690556040513381527f5db9ee0a495bf2e6ff9c91a7834c1ba4fdd244a5e8aa4e537bd38aeae4b073aa906020015b60405180910390a1565b5f546001600160a01b0316331461059a5760405162461bcd60e51b8152600401610368906109bb565b60025460ff16156105bd5760405162461bcd60e51b81526004016103689061094f565b6002805460ff191660011790556040513381527f62e78cea01bee320cd4e420270b5ea74000d11b0c9f74754ebdbfc544b05a25890602001610567565b60025460ff161561061d5760405162461bcd60e51b81526004016103689061094f565b60015442101561064057604051632d4f9b0560e01b815260040160405180910390fd5b335f9081526003602052604081205490819003610670576040516345556f1f60e01b815260040160405180910390fd5b335f908152600360205260408120819055600580548392906106939084906109a8565b90915550506040805182815242602082015233917f92ccf450a286a957af52509bc1c9939d1a6a481783e142e41e2499f0bb66ebc6910160405180910390a26040515f90339083908381818185875af1925050503d805f8114610711576040519150601f19603f3d011682016040523d82523d5f602084013e610716565b606091505b5050905080610738576040516340d812e160e01b815260040160405180910390fd5b5050565b60025460ff161561075f5760405162461bcd60e51b81526004016103689061094f565b66038d7ea4c68000341015610787576040516345556f1f60e01b815260040160405180910390fd5b335f90815260036020526040812054906107a134836109a8565b905068056bc75e2d631000008111156107cd576040516312e10f2760e01b815260040160405180910390fd5b335f908152600360205260408120829055600480543492906107f09084906109a8565b90915550506040805134815242602082015233917f73a19dd210f1a7f902193214c0ee91dd35ee5b4d920cba8d519eca65a7b488ca910160405180910390a25050565b5f546001600160a01b0316331461085c5760405162461bcd60e51b8152600401610368906109bb565b6001600160a01b0381166108b25760405162461bcd60e51b815260206004820152601960248201527f4e6577206f776e6572206973207a65726f2061646472657373000000000000006044820152606401610368565b5f80546040516001600160a01b03808516939216917f8be0079c531659141344cd1fd0a4f28419497f9722a3daafe3b4186f6b6457e091a35f80546001600160a01b0319166001600160a01b0392909216919091179055565b5f6020828403121561091b575f80fd5b5035919050565b5f60208284031215610932575f80fd5b81356001600160a01b0381168114610948575f80fd5b9392505050565b60208082526012908201527110dbdb9d1c9858dd081a5cc81c185d5cd95960721b604082015260600190565b634e487b7160e01b5f52601160045260245ffd5b818103818111156109a2576109a261097b565b92915050565b808201808211156109a2576109a261097b565b6020808252600990820152682737ba1037bbb732b960b91b60408201526060019056fea2646970667358221220c8ec876bf501fb25b927a299625cfb4451c77885ac410972676c966d23f2a32164736f6c63430008140033","linkReferences":{}},"methodIdentifiers":{"MAX_DEPOSIT_AMOUNT()":"4c34a982","MIN_DEPOSIT_AMOUNT()":"1ea30fef","deposit()":"d0e30db0","deposits(address)":"fc7e286d","getBalance()":"12065fe0","getContractStats()":"dfe6b5d6","getUnlockTime()":"602bc62b","getUserDeposit(address)":"c084b10b","isUnlocked()":"8380edb7","owner()":"8da5cb5b","pause()":"8456cb59","paused()":"5c975abb","totalDeposits()":"7d882097","totalWithdrawals()":"60464627","transferOwnership(address)":"f2fde38b","unlockTime()":"251c1aa3","unpause()":"3f4ba83a","withdraw(uint256)":"2e1a7d4d","withdrawAll()":"853828b6"},"id":0}